:1000000045C0000060C000005EC000005CC0000091
:100010005AC0000058C0000056C0000054C0000084
:1000200052C0000050C000004EC000004CC0000094
:10003000F7C1000048C0000046C0000044C00000F6
:1000400042C0000040C000003EC000003CC00000B4
:100050003AC0000038C0000036C0000034C00000C4
:1000600032C0000030C000002EC000002CC00000D4
:100070002AC0000028C0000026C0000024C00000E4
:1000800022C0000020C000001EC0000011241FBEBE
:10009000CFEFD0E1DEBFCDBF11E0A0E0B1E0ECEEEC
:1000A000F9E000E00BBF02C007900D92A630B10747
:1000B000D9F727E0A6E0B1E001C01D92A334B20752
:1000C000E1F702D091C49CCF0DD3FFCFFC01039682
:1000D000928381832FEF3FEF34832383968385833D
:1000E0009087878310820895FC01118610860895F9
:1000F000CF93DF939C01FB01DC011196CD91DC9144
:100100001297D383C2838C819D81958384838C8154
:100110009D81DC0113967C936E9312977D836C8393
:1001200031872087F90180818F5F8083DF91CF91B4
:100130000895CF93DF93FC01A085B18582819381DF
:1001400024813581EC013D832C83C481D5819B833F
:100150008A8311968D919C911297E817F90721F4E3
:100160001296DC93CE931197118610868C91815054
:100170008C938C91DF91CF91089531E1FC01308314
:10018000319722E220833197A3E3A08331976083E4
:100190003197708331971082319760E8608331978F
:1001A0001082319762E06083319763E0608331971A
:1001B00064E06083319765E06083319766E0608337
:1001C000319767E06083319768E06083319769E039
:1001D0006083319760E1608331973083319732E1FA
:1001E0003083319733E13083319734E13083319775
:1001F00035E13083319736E13083319737E1308311
:10020000319738E13083319739E13083319730E2EB
:100210003083319731E2308331972083319723E265
:1002200020833197408331975083319726E2208392
:10023000319727E22083319728E22083319729E202
:100240002083319720E32083319721E32083869711
:1002500008951BBC8CE78ABD8BE08EBD87B780619B
:1002600087BFA0914107B0914207CD91CDBFDD91ED
:10027000DEBFFF91EF91DF91CF91BF91AF919F9141
:100280008F917F916F915F914F913F912F911F912E
:100290000F91FF90EF90DF90CF90BF90AF909F9025
:1002A0008F907F906F905F904F903F902F901F9016
:1002B0000F900FBE0F90089581E008950F920FB632
:1002C000F8940F921F9211242F923F924F925F92B7
:1002D0006F927F928F929F92AF92BF92CF92DF9256
:1002E000EF92FF920F931F932F933F934F935F9340
:1002F0006F937F938F939F93AF93BF93CF93DF932E
:10030000EF93FF93A0914107B09142070DB60D9274
:100310000EB60D9226D3A0914107B0914207CD9120
:10032000CDBFDD91DEBFFF91EF91DF91CF91BF9106
:10033000AF919F918F917F916F915F914F913F917D
:100340002F911F910F91FF90EF90DF90CF90BF9072
:10035000AF909F908F907F906F905F904F903F9065
:100360002F901F900F900FBE0F9008950F920FB611
:10037000F8940F921F9211242F923F924F925F9206
:100380006F927F928F929F92AF92BF92CF92DF92A5
:10039000EF92FF920F931F932F933F934F935F938F
:1003A0006F937F938F939F93AF93BF93CF93DF937D
:1003B000EF93FF93A0914107B09142070DB60D92C4
:1003C0000EB60D92BDD18111CCD2A0914107B09152
:1003D0004207CD91CDBFDD91DEBFFF91EF91DF915F
:1003E000CF91BF91AF919F918F917F916F915F91CD
:1003F0004F913F912F911F910F91FF90EF90DF90C0
:10040000CF90BF90AF909F908F907F906F905F90B4
:100410004F903F902F901F900F900FBE0F90089518
:10042000A5DF1895CF93DF93EC0184D1809106016D
:1004300090910701892B31F48BE091E090930701B3
:10044000809306012091080130910901C9018C0FA8
:100450009D1F8B3D45E0940770F42817390758F429
:10046000C0910601D0910701C20FD31F90930901DB
:100470008093080102C0C0E0D0E00AD2CE01DF9133
:10048000CF9108950895E0910907F0910A078081BE
:10049000811103C08FEF9FEF0CC0E0910907F0912D
:1004A0000A070580F681E02D0680F781E02D828124
:1004B00093819093EA068093E90608958091F4066B
:1004C0008823F1F00FB6F8940F92E091FA06F091BC
:1004D000FB06C681D781CE0102962BDE8091F30602
:1004E00081508093F3068091F40681508093F40646
:1004F0000F900FBE8F89988DC5DFCE01C3DFDECF91
:1005000080911D078230D0F2D9DED8CF3F924F9232
:100510005F926F927F928F929F92AF92BF92CF9293
:10052000DF92EF92FF920F931F93CF93DF934C01D3
:10053000162F372E6A015901CA0174DF2C01892B4D
:1005400009F4BDC086E290E06DDFEC01892B79F003
:10055000588E4F8AC60101973201680E791EBE017E
:10056000675E7F4FE12FF32DCF01089606C0C201D1
:1005700089DFA5C0E817F90749F09F014191DB0128
:100580004D93BD01D9012C912111F4CF18A2043053
:1005900008F003E00E8B6E01B2E0CB0ED11CC60159
:1005A000A3DDCE010C96A0DDD987C88784E090E05A
:1005B000801B91099D878C87DB8BCA8B19A21AA29D
:1005C0001BA21CA21DA2A501B401C301D6DD998303
:1005D0008883E114F10419F0F701D183C0830FB6C9
:1005E000F8940F928091F3068F5F8093F3068091C9
:1005F000410790914207892B69F5D0934207C09338
:1006000041078091F3068130A9F58DE197E05EDD29
:1006100086E297E05BDD8FE297E058DD88E397E0C4
:1006200055DD84E197E052DD8BE097E04FDD8EEF02
:1006300096E04CDD85EF96E049DD84E197E090930C
:100640000A07809309078BE097E09093080780934F
:10065000070710C08091EF0681110CC0E09141079F
:10066000F091420796898E89891720F0D09342072E
:10067000C09341078091EB068F5F8093EB068E89D4
:100680009091F006981710F48093F006F9E08F9F90
:10069000C0011124B601835E984F2ADD0F900FBE72
:1006A0008091EF06882349F0E0914107F0914207DD
:1006B00096898E89981708F401DE81E001C08FEFDA
:1006C000DF91CF911F910F91FF90EF90DF90CF902E
:1006D000BF90AF909F908F907F906F905F904F9062
:1006E0003F900895EF92FF920F9387EEE82E86E0F9
:1006F000F82E00E020E030E045E550E060E071E0F9
:100700008EE592E003DF813089F4F8942FEF3FEF1C
:100710003093EA062093E9068093EF061092F206E2
:100720001092F1060F91FF90EF9093CD0F91FF90F3
:10073000EF9008958091E6068F5F8093E606089516
:10074000CF92DF92EF92FF920F931F93CF93DF939D
:100750008091E606811188C00091F1061091F206A1
:100760000F5F1F4F1093F2060093F106011511055C
:10077000B1F48091090790910A0720910707309101
:10078000080730930A07209309079093080780937E
:1007900007078091EC068F5F8093EC0674DE8091F2
:1007A000E9069091EA06C0E00817190708F44CC062
:1007B000D9E0E0910907F0910A078081811103C017
:1007C0008FEF9FEF11C0E0910907F0910A070580B4
:1007D000F681E02DE680F780D70112968D919C91ED
:1007E00013970817190728F49093EA068093E906EF
:1007F0002BC06701B2E0CB0ED11CC6019ADCF70119
:1008000084899589892B19F0C7010C9692DCD70150
:1008100056968C919091F006981710F48093F006FC
:10082000D89FC0011124B601835E984F61DCE0912E
:100830004107F0914207D70156969C9186899817F7
:1008400008F4B7CFC1E0B5CFE0914107F09142077E
:10085000E689B9E0EB9FF0011124E35EF84F808157
:10086000823040F0C1E006C08091EE068F5F809339
:10087000EE06C0E08091ED068111C1E08C2FDF9182
:10088000CF911F910F91FF90EF90DF90CF9008953F
:10089000EF92FF920F931F93CF93DF930FB6F894CD
:1008A0000F928091E60681508093E6068091E606DD
:1008B000882311F080E04CC08091F3068823D1F3A7
:1008C000C0E0D0E089E0F82EEE24E3948091FE06AB
:1008D000882339F1E0910307F0910407C681D7819D
:1008E000CE010C9626DC8E010E5F1F4FC80121DC65
:1008F0008E899091F006981710F48093F006F89E78
:10090000C0011124B801835E984FF2DBE0914107EA
:10091000F09142079E8986899817C0F2E092ED0611
:10092000D5CFCD2B09F0AFDDC091EE06CC2349F039
:10093000D1E006DF8111D093ED06C150D1F71092BE
:10094000EE068091ED06882309F4B4CFB7DC81E090
:100950000F900FBEDF91CF911F910F91FF90EF90FD
:1009600008958091E606882321F081E08093ED06CA
:1009700008951092ED068091F00669E0482F50E04E
:10098000649F9001659F300D1124F901E35EF84FDB
:100990009081911102C08150F1CFA181B281129654
:1009A0000D90BC91A02DB283A183205E384FA21779
:1009B000B30731F412962D913C9113973283218322
:1009C00099E0949FF001959FF00D1124E35EF84F9C
:1009D0000180F281E02D26813781309342072093F8
:0C09E00041078093F0060895F894FFCFC3
:0609EC0049444C450000E7
:00000001FF
